{
  "_format": "hh-sol-artifact-1",
  "contractName": "SchemaRegistry",
  "sourceName": "contracts/SchemaRegistry.sol",
  "abi": [
    {
      "anonymous": false,
      "inputs": [
        {
          "indexed": true,
          "internalType": "uint256",
          "name": "schemaId",
          "type": "uint256"
        },
        {
          "indexed": true,
          "internalType": "string",
          "name": "issuerDID",
          "type": "string"
        },
        {
          "indexed": false,
          "internalType": "uint256",
          "name": "timestamp",
          "type": "uint256"
        }
      ],
      "name": "SchemaDeactivated",
      "type": "event"
    },
    {
      "anonymous": false,
      "inputs": [
        {
          "indexed": true,
          "internalType": "uint256",
          "name": "schemaId",
          "type": "uint256"
        },
        {
          "indexed": true,
          "internalType": "string",
          "name": "issuerDID",
          "type": "string"
        },
        {
          "indexed": false,
          "internalType": "string",
          "name": "name",
          "type": "string"
        },
        {
          "indexed": false,
          "internalType": "string",
          "name": "version",
          "type": "string"
        },
        {
          "indexed": false,
          "internalType": "enum SchemaRegistry.SchemaType",
          "name": "schemaType",
          "type": "uint8"
        },
        {
          "indexed": false,
          "internalType": "uint256",
          "name": "timestamp",
          "type": "uint256"
        }
      ],
      "name": "SchemaRegistered",
      "type": "event"
    },
    {
      "anonymous": false,
      "inputs": [
        {
          "indexed": true,
          "internalType": "uint256",
          "name": "schemaId",
          "type": "uint256"
        },
        {
          "indexed": false,
          "internalType": "string",
          "name": "issuerDID",
          "type": "string"
        },
        {
          "indexed": true,
          "internalType": "address",
          "name": "oldOwner",
          "type": "address"
        },
        {
          "indexed": true,
          "internalType": "address",
          "name": "newOwner",
          "type": "address"
        },
        {
          "indexed": false,
          "internalType": "uint256",
          "name": "timestamp",
          "type": "uint256"
        }
      ],
      "name": "SchemaTransferred",
      "type": "event"
    },
    {
      "anonymous": false,
      "inputs": [
        {
          "indexed": true,
          "internalType": "uint256",
          "name": "schemaId",
          "type": "uint256"
        },
        {
          "indexed": true,
          "internalType": "string",
          "name": "issuerDID",
          "type": "string"
        },
        {
          "indexed": false,
          "internalType": "string",
          "name": "newVersion",
          "type": "string"
        },
        {
          "indexed": false,
          "internalType": "uint256",
          "name": "timestamp",
          "type": "uint256"
        }
      ],
      "name": "SchemaUpdated",
      "type": "event"
    },
    {
      "inputs": [
        {
          "internalType": "uint256",
          "name": "schemaId",
          "type": "uint256"
        }
      ],
      "name": "deactivateSchema",
      "outputs": [],
      "stateMutability": "nonpayable",
      "type": "function"
    },
    {
      "inputs": [
        {
          "internalType": "uint256",
          "name": "schemaId",
          "type": "uint256"
        }
      ],
      "name": "getSchema",
      "outputs": [
        {
          "components": [
            {
              "internalType": "string",
              "name": "name",
              "type": "string"
            },
            {
              "internalType": "string",
              "name": "description",
              "type": "string"
            },
            {
              "internalType": "string",
              "name": "schemaHash",
              "type": "string"
            },
            {
              "internalType": "string",
              "name": "issuerDID",
              "type": "string"
            },
            {
              "internalType": "string",
              "name": "version",
              "type": "string"
            },
            {
              "internalType": "uint256",
              "name": "created",
              "type": "uint256"
            },
            {
              "internalType": "uint256",
              "name": "updated",
              "type": "uint256"
            },
            {
              "internalType": "bool",
              "name": "active",
              "type": "bool"
            },
            {
              "internalType": "address",
              "name": "owner",
              "type": "address"
            },
            {
              "internalType": "enum SchemaRegistry.SchemaType",
              "name": "schemaType",
              "type": "uint8"
            },
            {
              "internalType": "string[]",
              "name": "dependencies",
              "type": "string[]"
            }
          ],
          "internalType": "struct SchemaRegistry.CredentialSchema",
          "name": "",
          "type": "tuple"
        }
      ],
      "stateMutability": "view",
      "type": "function"
    },
    {
      "inputs": [
        {
          "internalType": "uint256",
          "name": "schemaId",
          "type": "uint256"
        }
      ],
      "name": "getSchemaDependencies",
      "outputs": [
        {
          "internalType": "string[]",
          "name": "",
          "type": "string[]"
        }
      ],
      "stateMutability": "view",
      "type": "function"
    },
    {
      "inputs": [
        {
          "internalType": "string",
          "name": "issuerDID",
          "type": "string"
        },
        {
          "internalType": "string",
          "name": "name",
          "type": "string"
        }
      ],
      "name": "getSchemaIdByName",
      "outputs": [
        {
          "internalType": "uint256",
          "name": "",
          "type": "uint256"
        }
      ],
      "stateMutability": "view",
      "type": "function"
    },
    {
      "inputs": [
        {
          "internalType": "string",
          "name": "issuerDID",
          "type": "string"
        }
      ],
      "name": "getSchemasByIssuer",
      "outputs": [
        {
          "internalType": "uint256[]",
          "name": "",
          "type": "uint256[]"
        }
      ],
      "stateMutability": "view",
      "type": "function"
    },
    {
      "inputs": [
        {
          "internalType": "enum SchemaRegistry.SchemaType",
          "name": "schemaType",
          "type": "uint8"
        }
      ],
      "name": "getSchemasByType",
      "outputs": [
        {
          "internalType": "uint256[]",
          "name": "",
          "type": "uint256[]"
        }
      ],
      "stateMutability": "view",
      "type": "function"
    },
    {
      "inputs": [],
      "name": "getTotalSchemaCount",
      "outputs": [
        {
          "internalType": "uint256",
          "name": "",
          "type": "uint256"
        }
      ],
      "stateMutability": "view",
      "type": "function"
    },
    {
      "inputs": [
        {
          "internalType": "uint256",
          "name": "schemaId",
          "type": "uint256"
        }
      ],
      "name": "hasCircularDependencies",
      "outputs": [
        {
          "internalType": "bool",
          "name": "",
          "type": "bool"
        }
      ],
      "stateMutability": "view",
      "type": "function"
    },
    {
      "inputs": [
        {
          "internalType": "bytes32",
          "name": "",
          "type": "bytes32"
        },
        {
          "internalType": "uint256",
          "name": "",
          "type": "uint256"
        }
      ],
      "name": "issuerSchemas",
      "outputs": [
        {
          "internalType": "uint256",
          "name": "",
          "type": "uint256"
        }
      ],
      "stateMutability": "view",
      "type": "function"
    },
    {
      "inputs": [
        {
          "internalType": "string",
          "name": "name",
          "type": "string"
        },
        {
          "internalType": "string",
          "name": "description",
          "type": "string"
        },
        {
          "internalType": "string",
          "name": "schemaHash",
          "type": "string"
        },
        {
          "internalType": "string",
          "name": "issuerDID",
          "type": "string"
        },
        {
          "internalType": "string",
          "name": "version",
          "type": "string"
        },
        {
          "internalType": "enum SchemaRegistry.SchemaType",
          "name": "schemaType",
          "type": "uint8"
        },
        {
          "internalType": "string[]",
          "name": "dependencies",
          "type": "string[]"
        }
      ],
      "name": "registerSchema",
      "outputs": [
        {
          "internalType": "uint256",
          "name": "",
          "type": "uint256"
        }
      ],
      "stateMutability": "nonpayable",
      "type": "function"
    },
    {
      "inputs": [
        {
          "internalType": "uint256",
          "name": "schemaId",
          "type": "uint256"
        }
      ],
      "name": "schemaExists",
      "outputs": [
        {
          "internalType": "bool",
          "name": "",
          "type": "bool"
        }
      ],
      "stateMutability": "view",
      "type": "function"
    },
    {
      "inputs": [
        {
          "internalType": "bytes32",
          "name": "",
          "type": "bytes32"
        },
        {
          "internalType": "bytes32",
          "name": "",
          "type": "bytes32"
        }
      ],
      "name": "schemaNameToId",
      "outputs": [
        {
          "internalType": "uint256",
          "name": "",
          "type": "uint256"
        }
      ],
      "stateMutability": "view",
      "type": "function"
    },
    {
      "inputs": [
        {
          "internalType": "uint256",
          "name": "",
          "type": "uint256"
        }
      ],
      "name": "schemas",
      "outputs": [
        {
          "internalType": "string",
          "name": "name",
          "type": "string"
        },
        {
          "internalType": "string",
          "name": "description",
          "type": "string"
        },
        {
          "internalType": "string",
          "name": "schemaHash",
          "type": "string"
        },
        {
          "internalType": "string",
          "name": "issuerDID",
          "type": "string"
        },
        {
          "internalType": "string",
          "name": "version",
          "type": "string"
        },
        {
          "internalType": "uint256",
          "name": "created",
          "type": "uint256"
        },
        {
          "internalType": "uint256",
          "name": "updated",
          "type": "uint256"
        },
        {
          "internalType": "bool",
          "name": "active",
          "type": "bool"
        },
        {
          "internalType": "address",
          "name": "owner",
          "type": "address"
        },
        {
          "internalType": "enum SchemaRegistry.SchemaType",
          "name": "schemaType",
          "type": "uint8"
        }
      ],
      "stateMutability": "view",
      "type": "function"
    },
    {
      "inputs": [
        {
          "internalType": "uint256",
          "name": "schemaId",
          "type": "uint256"
        },
        {
          "internalType": "address",
          "name": "newOwner",
          "type": "address"
        }
      ],
      "name": "transferSchema",
      "outputs": [],
      "stateMutability": "nonpayable",
      "type": "function"
    },
    {
      "inputs": [
        {
          "internalType": "uint256",
          "name": "schemaId",
          "type": "uint256"
        },
        {
          "internalType": "string",
          "name": "description",
          "type": "string"
        },
        {
          "internalType": "string",
          "name": "schemaHash",
          "type": "string"
        },
        {
          "internalType": "string",
          "name": "newVersion",
          "type": "string"
        },
        {
          "internalType": "string[]",
          "name": "dependencies",
          "type": "string[]"
        }
      ],
      "name": "updateSchema",
      "outputs": [],
      "stateMutability": "nonpayable",
      "type": "function"
    }
  ],
  "bytecode": "0x6080604052600160035534801561001557600080fd5b506128ba806100256000396000f3fe608060405234801561001057600080fd5b50600436106100f55760003560e01c806367fecebf116100975780639b87197c116100665780639b87197c14610212578063acfd96421461023d578063c85a376514610250578063ede06d4f1461027357600080fd5b806367fecebf146101b75780636a878145146101cc57806383bc1936146101ec578063876c8a8e146101ff57600080fd5b806330b6f5db116100d357806330b6f5db146101695780633afbbe691461017157806353abbb3914610184578063629aa67c1461019757600080fd5b806316c7ee6b146100fa5780631ab9511a146101205780632b26fb2914610149575b600080fd5b61010d610108366004611d12565b610286565b6040519081526020015b60405180910390f35b61013361012e366004611d34565b6102b7565b6040516101179a99989796959493929190611dd5565b61015c610157366004611d34565b6105be565b6040516101179190611ed5565b61010d610a3e565b61010d61017f366004612153565b610a54565b61010d61019236600461225a565b610f25565b6101aa6101a53660046122be565b610f52565b60405161011791906122d9565b6101ca6101c5366004611d34565b6110e6565b005b6101df6101da366004611d34565b6111fd565b604051610117919061231d565b6101aa6101fa36600461237f565b61130f565b6101ca61020d3660046123bc565b611379565b61010d610220366004611d12565b600260209081526000928352604080842090915290825290205481565b6101ca61024b366004612473565b611678565b61026361025e366004611d34565b611833565b6040519015158152602001610117565b610263610281366004611d34565b611884565b600160205281600052604060002081815481106102a257600080fd5b90600052602060002001600091509150505481565b6000602081905290815260409020805481906102d2906124af565b80601f01602080910402602001604051908101604052809291908181526020018280546102fe906124af565b801561034b5780601f106103205761010080835404028352916020019161034b565b820191906000526020600020905b81548152906001019060200180831161032e57829003601f168201915b505050505090806001018054610360906124af565b80601f016020809104026020016040519081016040528092919081815260200182805461038c906124af565b80156103d95780601f106103ae576101008083540402835291602001916103d9565b820191906000526020600020905b8154815290600101906020018083116103bc57829003601f168201915b5050505050908060020180546103ee906124af565b80601f016020809104026020016040519081016040528092919081815260200182805461041a906124af565b80156104675780601f1061043c57610100808354040283529160200191610467565b820191906000526020600020905b81548152906001019060200180831161044a57829003601f168201915b50505050509080600301805461047c906124af565b80601f01602080910402602001604051908101604052809291908181526020018280546104a8906124af565b80156104f55780601f106104ca576101008083540402835291602001916104f5565b820191906000526020600020905b8154815290600101906020018083116104d857829003601f168201915b50505050509080600401805461050a906124af565b80601f0160208091040260200160405190810160405280929190818152602001828054610536906124af565b80156105835780601f1061055857610100808354040283529160200191610583565b820191906000526020600020905b81548152906001019060200180831161056657829003601f168201915b505050600584015460068501546007909501549394909390925060ff80821692506001600160a01b0361010083041691600160a81b9004168a565b6105c6611bd7565b816000811180156105d8575060035481105b6105fd5760405162461bcd60e51b81526004016105f4906124e3565b60405180910390fd5b6000838152602081905260409081902081516101608101909252805482908290610626906124af565b80601f0160208091040260200160405190810160405280929190818152602001828054610652906124af565b801561069f5780601f106106745761010080835404028352916020019161069f565b820191906000526020600020905b81548152906001019060200180831161068257829003601f168201915b505050505081526020016001820180546106b8906124af565b80601f01602080910402602001604051908101604052809291908181526020018280546106e4906124af565b80156107315780601f1061070657610100808354040283529160200191610731565b820191906000526020600020905b81548152906001019060200180831161071457829003601f168201915b5050505050815260200160028201805461074a906124af565b80601f0160208091040260200160405190810160405280929190818152602001828054610776906124af565b80156107c35780601f10610798576101008083540402835291602001916107c3565b820191906000526020600020905b8154815290600101906020018083116107a657829003601f168201915b505050505081526020016003820180546107dc906124af565b80601f0160208091040260200160405190810160405280929190818152602001828054610808906124af565b80156108555780601f1061082a57610100808354040283529160200191610855565b820191906000526020600020905b81548152906001019060200180831161083857829003601f168201915b5050505050815260200160048201805461086e906124af565b80601f016020809104026020016040519081016040528092919081815260200182805461089a906124af565b80156108e75780601f106108bc576101008083540402835291602001916108e7565b820191906000526020600020905b8154815290600101906020018083116108ca57829003601f168201915b5050509183525050600582015460208201526006808301546040830152600783015460ff808216151560608501526001600160a01b03610100830416608085015260a090930192600160a81b909104169081111561094757610947611d9d565b600681111561095857610958611d9d565b815260200160088201805480602002602001604051908101604052809291908181526020016000905b82821015610a2d5783829060005260206000200180546109a0906124af565b80601f01602080910402602001604051908101604052809291908181526020018280546109cc906124af565b8015610a195780601f106109ee57610100808354040283529160200191610a19565b820191906000526020600020905b8154815290600101906020018083116109fc57829003601f168201915b505050505081526020019060010190610981565b505050508152505091505b50919050565b60006001600354610a4f9190612524565b905090565b600080885111610a9d5760405162461bcd60e51b815260206004820152601460248201527314d8da195b58481b985b59481c995c5d5a5c995960621b60448201526064016105f4565b6000865111610ae55760405162461bcd60e51b815260206004820152601460248201527314d8da195b58481a185cda081c995c5d5a5c995960621b60448201526064016105f4565b6000855111610b2c5760405162461bcd60e51b8152602060048201526013602482015272125cdcdd595c88111251081c995c5d5a5c9959606a1b60448201526064016105f4565b6000845111610b705760405162461bcd60e51b815260206004820152601060248201526f15995c9cda5bdb881c995c5d5a5c995960821b60448201526064016105f4565b845160208087019190912089518a8301206000828152600284526040808220838352909452929092205490919015610bfd5760405162461bcd60e51b815260206004820152602a60248201527f536368656d61206e616d6520616c72656164792065786973747320666f7220746044820152693434b99034b9b9bab2b960b11b60648201526084016105f4565b60005b8451811015610cf5576000610c2d868381518110610c2057610c20612537565b60200260200101516118b6565b9050600081118015610c40575060035481105b610c815760405162461bcd60e51b8152602060048201526012602482015271496e76616c696420646570656e64656e637960701b60448201526064016105f4565b60008181526020819052604090206007015460ff16610ce25760405162461bcd60e51b815260206004820152601c60248201527f446570656e64656e637920736368656d61206e6f74206163746976650000000060448201526064016105f4565b5080610ced8161254d565b915050610c00565b506003805460009182610d078361254d565b9190505590506040518061016001604052808c81526020018b81526020018a8152602001898152602001888152602001428152602001428152602001600115158152602001336001600160a01b03168152602001876006811115610d6d57610d6d611d9d565b815260209081018790526000838152908190526040902081518190610d9290826125b5565b5060208201516001820190610da790826125b5565b5060408201516002820190610dbc90826125b5565b5060608201516003820190610dd190826125b5565b5060808201516004820190610de690826125b5565b5060a0820151600582015560c082015160068083019190915560e0830151600783018054610100808701516001600160a01b031602610100600160a81b0319931515939093166001600160a81b031990911617919091178082556101208501519260ff60a81b1990911690600160a81b908490811115610e6857610e68611d9d565b02179055506101408201518051610e89916008840191602090910190611c4d565b50505060008381526001602081815260408084208054938401815584528184209092018490558583526002815281832085845290529081902082905551610ed1908990612675565b6040518091039020817f44823dc0769336ad3517e3cf7b915035376efea02485eeaa0723d5adb9d435da8d8a8a42604051610f0f9493929190612691565b60405180910390a39a9950505050505050505050565b81516020808401919091208251838301206000918252600283526040808320918352925220545b92915050565b6060600060015b600354811015610fe55760008181526020819052604090206007015460ff168015610fc05750836006811115610f9157610f91611d9d565b600082815260208190526040902060070154600160a81b900460ff166006811115610fbe57610fbe611d9d565b145b15610fd35781610fcf8161254d565b9250505b80610fdd8161254d565b915050610f59565b5060008167ffffffffffffffff81111561100157611001611fe9565b60405190808252806020026020018201604052801561102a578160200160208202803683370190505b509050600060015b6003548110156110dc5760008181526020819052604090206007015460ff168015611099575085600681111561106a5761106a611d9d565b600082815260208190526040902060070154600160a81b900460ff16600681111561109757611097611d9d565b145b156110ca57808383815181106110b1576110b1612537565b6020908102919091010152816110c68161254d565b9250505b806110d48161254d565b915050611032565b5090949350505050565b806000811180156110f8575060035481105b6111145760405162461bcd60e51b81526004016105f4906124e3565b600082815260208190526040902060070154829061010090046001600160a01b031633146111545760405162461bcd60e51b81526004016105f4906126d5565b60008181526020819052604090206007015460ff166111855760405162461bcd60e51b81526004016105f4906126ff565b6000838152602081905260409081902060078101805460ff1916905542600682015590516111b6916003019061272e565b6040518091039020837fae0d3d0c1d5bfc154d4ac777e3f154255c17d5026c98dad9e78ed0c1f5edd9d7426040516111f091815260200190565b60405180910390a3505050565b606081600081118015611211575060035481105b61122d5760405162461bcd60e51b81526004016105f4906124e3565b60008381526020818152604080832060080180548251818502810185019093528083529193909284015b82821015611303578382906000526020600020018054611276906124af565b80601f01602080910402602001604051908101604052809291908181526020018280546112a2906124af565b80156112ef5780601f106112c4576101008083540402835291602001916112ef565b820191906000526020600020905b8154815290600101906020018083116112d257829003601f168201915b505050505081526020019060010190611257565b50505050915050919050565b8051602080830191909120600081815260018352604090819020805482518186028101860190935280835260609483018282801561136c57602002820191906000526020600020905b815481526020019060010190808311611358575b5050505050915050919050565b8460008111801561138b575060035481105b6113a75760405162461bcd60e51b81526004016105f4906124e3565b600086815260208190526040902060070154869061010090046001600160a01b031633146113e75760405162461bcd60e51b81526004016105f4906126d5565b60008181526020819052604090206007015460ff166114185760405162461bcd60e51b81526004016105f4906126ff565b60008551116114605760405162461bcd60e51b815260206004820152601460248201527314d8da195b58481a185cda081c995c5d5a5c995960621b60448201526064016105f4565b60008451116114a45760405162461bcd60e51b815260206004820152601060248201526f15995c9cda5bdb881c995c5d5a5c995960821b60448201526064016105f4565b60005b835181101561158f5760006114c7858381518110610c2057610c20612537565b90506000811180156114da575060035481105b61151b5760405162461bcd60e51b8152602060048201526012602482015271496e76616c696420646570656e64656e637960701b60448201526064016105f4565b60008181526020819052604090206007015460ff1661157c5760405162461bcd60e51b815260206004820152601c60248201527f446570656e64656e637920736368656d61206e6f74206163746976650000000060448201526064016105f4565b50806115878161254d565b9150506114a7565b5060008781526020819052604090206001016115ab87826125b5565b5060008781526020819052604090206002016115c786826125b5565b5060008781526020819052604090206004016115e385826125b5565b50600087815260208181526040909120426006820155845161160d92600890920191860190611c4d565b5060008781526020819052604090819020905161162d916003019061272e565b6040518091039020877fb4cc95f84524d56d50f2d773822590033a92788742fdff63453ebe882f3fd0d986426040516116679291906127a4565b60405180910390a350505050505050565b8160008111801561168a575060035481105b6116a65760405162461bcd60e51b81526004016105f4906124e3565b600083815260208190526040902060070154839061010090046001600160a01b031633146116e65760405162461bcd60e51b81526004016105f4906126d5565b60008181526020819052604090206007015460ff166117175760405162461bcd60e51b81526004016105f4906126ff565b6001600160a01b0383166117615760405162461bcd60e51b815260206004820152601160248201527024b73b30b634b2103732bb9037bbb732b960791b60448201526064016105f4565b336001600160a01b038416036117a95760405162461bcd60e51b815260206004820152600d60248201526c20b63932b0b23c9037bbb732b960991b60448201526064016105f4565b60008481526020819052604090819020600781018054610100600160a81b0319166101006001600160a01b038816908102919091179091554260068301819055925133939192849289927f571715716bb12c788c41aa2ee9ae9c8f05fb3308fd9add0ca53c61e0898a771692611824926003909101916127c6565b60405180910390a45050505050565b600081600081118015611847575060035481105b6118635760405162461bcd60e51b81526004016105f4906124e3565b60408051600081526020810190915261187d90849061197a565b9392505050565b60008082118015611896575060035482105b8015610f4c57505060009081526020819052604090206007015460ff1690565b60008181805b825181101561197257603060f81b8382815181106118dc576118dc612537565b01602001516001600160f81b0319161080159061191d5750603960f81b83828151811061190b5761190b612537565b01602001516001600160f81b03191611155b1561196057603083828151811061193657611936612537565b0160200151611948919060f81c612524565b61195383600a61285a565b61195d9190612871565b91505b8061196a8161254d565b9150506118bc565b509392505050565b6000805b82518110156119c3578383828151811061199a5761199a612537565b6020026020010151036119b1576001915050610f4c565b806119bb8161254d565b91505061197e565b506000825160016119d49190612871565b67ffffffffffffffff8111156119ec576119ec611fe9565b604051908082528060200260200182016040528015611a15578160200160208202803683370190505b50905060005b8351811015611a6d57838181518110611a3657611a36612537565b6020026020010151828281518110611a5057611a50612537565b602090810291909101015280611a658161254d565b915050611a1b565b508381845181518110611a8257611a82612537565b6020026020010181815250506000806000868152602001908152602001600020600801805480602002602001604051908101604052809291908181526020016000905b82821015611b71578382906000526020600020018054611ae4906124af565b80601f0160208091040260200160405190810160405280929190818152602001828054611b10906124af565b8015611b5d5780601f10611b3257610100808354040283529160200191611b5d565b820191906000526020600020905b815481529060010190602001808311611b4057829003601f168201915b505050505081526020019060010190611ac5565b50505050905060005b8151811015611bcb576000611b9a838381518110610c2057610c20612537565b9050611ba6818561197a565b15611bb8576001945050505050610f4c565b5080611bc38161254d565b915050611b7a565b50600095945050505050565b6040518061016001604052806060815260200160608152602001606081526020016060815260200160608152602001600081526020016000815260200160001515815260200160006001600160a01b0316815260200160006006811115611c4057611c40611d9d565b8152602001606081525090565b828054828255906000526020600020908101928215611c93579160200282015b82811115611c935782518290611c8390826125b5565b5091602001919060010190611c6d565b50611c9f929150611ca3565b5090565b80821115611c9f576000611cb78282611cc0565b50600101611ca3565b508054611ccc906124af565b6000825580601f10611cdc575050565b601f016020900490600052602060002090810190611cfa9190611cfd565b50565b5b80821115611c9f5760008155600101611cfe565b60008060408385031215611d2557600080fd5b50508035926020909101359150565b600060208284031215611d4657600080fd5b5035919050565b60005b83811015611d68578181015183820152602001611d50565b50506000910152565b60008151808452611d89816020860160208601611d4d565b601f01601f19169290920160200192915050565b634e487b7160e01b600052602160045260246000fd5b60078110611dd157634e487b7160e01b600052602160045260246000fd5b9052565b6000610140808352611de98184018e611d71565b90508281036020840152611dfd818d611d71565b90508281036040840152611e11818c611d71565b90508281036060840152611e25818b611d71565b90508281036080840152611e39818a611d71565b60a0840189905260c0840188905286151560e08501526001600160a01b0386166101008501529150611e719050610120830184611db3565b9b9a5050505050505050505050565b600081518084526020808501808196508360051b8101915082860160005b85811015611ec8578284038952611eb6848351611d71565b98850198935090840190600101611e9e565b5091979650505050505050565b6020815260008251610160806020850152611ef4610180850183611d71565b91506020850151601f1980868503016040870152611f128483611d71565b93506040870151915080868503016060870152611f2f8483611d71565b93506060870151915080868503016080870152611f4c8483611d71565b935060808701519150808685030160a0870152611f698483611d71565b935060a087015160c087015260c087015160e087015260e08701519150610100611f968188018415159052565b8701519150610120611fb2878201846001600160a01b03169052565b8701519150610140611fc687820184611db3565b870151868503909101838701529050611fdf8382611e80565b9695505050505050565b634e487b7160e01b600052604160045260246000fd5b604051601f8201601f1916810167ffffffffffffffff8111828210171561202857612028611fe9565b604052919050565b600082601f83011261204157600080fd5b813567ffffffffffffffff81111561205b5761205b611fe9565b61206e601f8201601f1916602001611fff565b81815284602083860101111561208357600080fd5b816020850160208301376000918101602001919091529392505050565b8035600781106120af57600080fd5b919050565b600082601f8301126120c557600080fd5b8135602067ffffffffffffffff808311156120e2576120e2611fe9565b8260051b6120f1838201611fff565b938452858101830193838101908886111561210b57600080fd5b84880192505b85831015612147578235848111156121295760008081fd5b6121378a87838c0101612030565b8352509184019190840190612111565b98975050505050505050565b600080600080600080600060e0888a03121561216e57600080fd5b873567ffffffffffffffff8082111561218657600080fd5b6121928b838c01612030565b985060208a01359150808211156121a857600080fd5b6121b48b838c01612030565b975060408a01359150808211156121ca57600080fd5b6121d68b838c01612030565b965060608a01359150808211156121ec57600080fd5b6121f88b838c01612030565b955060808a013591508082111561220e57600080fd5b61221a8b838c01612030565b945061222860a08b016120a0565b935060c08a013591508082111561223e57600080fd5b5061224b8a828b016120b4565b91505092959891949750929550565b6000806040838503121561226d57600080fd5b823567ffffffffffffffff8082111561228557600080fd5b61229186838701612030565b935060208501359150808211156122a757600080fd5b506122b485828601612030565b9150509250929050565b6000602082840312156122d057600080fd5b61187d826120a0565b6020808252825182820181905260009190848201906040850190845b81811015612311578351835292840192918401916001016122f5565b50909695505050505050565b6000602080830181845280855180835260408601915060408160051b870101925083870160005b8281101561237257603f19888603018452612360858351611d71565b94509285019290850190600101612344565b5092979650505050505050565b60006020828403121561239157600080fd5b813567ffffffffffffffff8111156123a857600080fd5b6123b484828501612030565b949350505050565b600080600080600060a086880312156123d457600080fd5b85359450602086013567ffffffffffffffff808211156123f357600080fd5b6123ff89838a01612030565b9550604088013591508082111561241557600080fd5b61242189838a01612030565b9450606088013591508082111561243757600080fd5b61244389838a01612030565b9350608088013591508082111561245957600080fd5b50612466888289016120b4565b9150509295509295909350565b6000806040838503121561248657600080fd5b8235915060208301356001600160a01b03811681146124a457600080fd5b809150509250929050565b600181811c908216806124c357607f821691505b602082108103610a3857634e487b7160e01b600052602260045260246000fd5b602080825260119082015270125b9d985b1a59081cd8da195b58481251607a1b604082015260600190565b634e487b7160e01b600052601160045260246000fd5b81810381811115610f4c57610f4c61250e565b634e487b7160e01b600052603260045260246000fd5b60006001820161255f5761255f61250e565b5060010190565b601f8211156125b057600081815260208120601f850160051c8101602086101561258d5750805b601f850160051c820191505b818110156125ac57828155600101612599565b5050505b505050565b815167ffffffffffffffff8111156125cf576125cf611fe9565b6125e3816125dd84546124af565b84612566565b602080601f83116001811461261857600084156126005750858301515b600019600386901b1c1916600185901b1785556125ac565b600085815260208120601f198616915b8281101561264757888601518255948401946001909101908401612628565b50858210156126655787850151600019600388901b60f8161c191681555b5050505050600190811b01905550565b60008251612687818460208701611d4d565b9190910192915050565b6080815260006126a46080830187611d71565b82810360208401526126b68187611d71565b9150506126c66040830185611db3565b82606083015295945050505050565b60208082526010908201526f2737ba1039b1b432b6b09037bbb732b960811b604082015260600190565b60208082526015908201527414d8da195b58481a5cc819195858dd1a5d985d1959605a1b604082015260600190565b600080835461273c816124af565b60018281168015612754576001811461276957612798565b60ff1984168752821515830287019450612798565b8760005260208060002060005b8581101561278f5781548a820152908401908201612776565b50505082870194505b50929695505050505050565b6040815260006127b76040830185611d71565b90508260208301529392505050565b6040815260008084546127d8816124af565b80604086015260606001808416600081146127fa576001811461281457612845565b60ff1985168884015283151560051b880183019550612845565b8960005260208060002060005b8681101561283c5781548b8201870152908401908201612821565b8a018501975050505b50505050506020929092019290925292915050565b8082028115828204841417610f4c57610f4c61250e565b80820180821115610f4c57610f4c61250e56fea2646970667358221220241a2ca10e893d9277f58f6a6efca44d6b31e0751809c4d8b1b452b078c7a5b064736f6c63430008140033",
  "linkReferences": {},
  "deployedLinkReferences": {}
}