{
  "_format": "hh-sol-artifact-1",
  "contractName": "DIDRegistry",
  "sourceName": "contracts/DIDRegistry.sol",
  "abi": [
    {
      "anonymous": false,
      "inputs": [
        {
          "indexed": true,
          "internalType": "string",
          "name": "did",
          "type": "string"
        },
        {
          "indexed": true,
          "internalType": "address",
          "name": "owner",
          "type": "address"
        },
        {
          "indexed": false,
          "internalType": "uint256",
          "name": "timestamp",
          "type": "uint256"
        }
      ],
      "name": "DIDDeactivated",
      "type": "event"
    },
    {
      "anonymous": false,
      "inputs": [
        {
          "indexed": true,
          "internalType": "string",
          "name": "did",
          "type": "string"
        },
        {
          "indexed": true,
          "internalType": "address",
          "name": "owner",
          "type": "address"
        },
        {
          "indexed": false,
          "internalType": "bytes",
          "name": "publicKey",
          "type": "bytes"
        },
        {
          "indexed": false,
          "internalType": "uint256",
          "name": "timestamp",
          "type": "uint256"
        }
      ],
      "name": "DIDRegistered",
      "type": "event"
    },
    {
      "anonymous": false,
      "inputs": [
        {
          "indexed": true,
          "internalType": "string",
          "name": "did",
          "type": "string"
        },
        {
          "indexed": true,
          "internalType": "address",
          "name": "oldOwner",
          "type": "address"
        },
        {
          "indexed": true,
          "internalType": "address",
          "name": "newOwner",
          "type": "address"
        },
        {
          "indexed": false,
          "internalType": "uint256",
          "name": "timestamp",
          "type": "uint256"
        }
      ],
      "name": "DIDTransferred",
      "type": "event"
    },
    {
      "anonymous": false,
      "inputs": [
        {
          "indexed": true,
          "internalType": "string",
          "name": "did",
          "type": "string"
        },
        {
          "indexed": true,
          "internalType": "address",
          "name": "owner",
          "type": "address"
        },
        {
          "indexed": false,
          "internalType": "bytes",
          "name": "newPublicKey",
          "type": "bytes"
        },
        {
          "indexed": false,
          "internalType": "uint256",
          "name": "timestamp",
          "type": "uint256"
        }
      ],
      "name": "DIDUpdated",
      "type": "event"
    },
    {
      "inputs": [
        {
          "internalType": "string",
          "name": "did",
          "type": "string"
        }
      ],
      "name": "deactivateDID",
      "outputs": [],
      "stateMutability": "nonpayable",
      "type": "function"
    },
    {
      "inputs": [
        {
          "internalType": "string",
          "name": "did",
          "type": "string"
        }
      ],
      "name": "didExists",
      "outputs": [
        {
          "internalType": "bool",
          "name": "",
          "type": "bool"
        }
      ],
      "stateMutability": "view",
      "type": "function"
    },
    {
      "inputs": [
        {
          "internalType": "string",
          "name": "",
          "type": "string"
        }
      ],
      "name": "dids",
      "outputs": [
        {
          "internalType": "bytes",
          "name": "publicKey",
          "type": "bytes"
        },
        {
          "internalType": "uint256",
          "name": "created",
          "type": "uint256"
        },
        {
          "internalType": "uint256",
          "name": "updated",
          "type": "uint256"
        },
        {
          "internalType": "bool",
          "name": "active",
          "type": "bool"
        },
        {
          "internalType": "address",
          "name": "owner",
          "type": "address"
        },
        {
          "internalType": "string",
          "name": "documentHash",
          "type": "string"
        }
      ],
      "stateMutability": "view",
      "type": "function"
    },
    {
      "inputs": [
        {
          "internalType": "address",
          "name": "owner",
          "type": "address"
        }
      ],
      "name": "getDIDCountByOwner",
      "outputs": [
        {
          "internalType": "uint256",
          "name": "",
          "type": "uint256"
        }
      ],
      "stateMutability": "view",
      "type": "function"
    },
    {
      "inputs": [
        {
          "internalType": "address",
          "name": "owner",
          "type": "address"
        }
      ],
      "name": "getDIDsByOwner",
      "outputs": [
        {
          "internalType": "string[]",
          "name": "",
          "type": "string[]"
        }
      ],
      "stateMutability": "view",
      "type": "function"
    },
    {
      "inputs": [
        {
          "internalType": "address",
          "name": "",
          "type": "address"
        },
        {
          "internalType": "uint256",
          "name": "",
          "type": "uint256"
        }
      ],
      "name": "ownerDIDs",
      "outputs": [
        {
          "internalType": "string",
          "name": "",
          "type": "string"
        }
      ],
      "stateMutability": "view",
      "type": "function"
    },
    {
      "inputs": [
        {
          "internalType": "string",
          "name": "did",
          "type": "string"
        },
        {
          "internalType": "bytes",
          "name": "publicKey",
          "type": "bytes"
        },
        {
          "internalType": "string",
          "name": "documentHash",
          "type": "string"
        }
      ],
      "name": "registerDID",
      "outputs": [],
      "stateMutability": "nonpayable",
      "type": "function"
    },
    {
      "inputs": [
        {
          "internalType": "string",
          "name": "did",
          "type": "string"
        }
      ],
      "name": "resolveDID",
      "outputs": [
        {
          "components": [
            {
              "internalType": "bytes",
              "name": "publicKey",
              "type": "bytes"
            },
            {
              "internalType": "uint256",
              "name": "created",
              "type": "uint256"
            },
            {
              "internalType": "uint256",
              "name": "updated",
              "type": "uint256"
            },
            {
              "internalType": "bool",
              "name": "active",
              "type": "bool"
            },
            {
              "internalType": "address",
              "name": "owner",
              "type": "address"
            },
            {
              "internalType": "string",
              "name": "documentHash",
              "type": "string"
            }
          ],
          "internalType": "struct DIDRegistry.DIDDocument",
          "name": "",
          "type": "tuple"
        }
      ],
      "stateMutability": "view",
      "type": "function"
    },
    {
      "inputs": [
        {
          "internalType": "string",
          "name": "did",
          "type": "string"
        },
        {
          "internalType": "address",
          "name": "newOwner",
          "type": "address"
        }
      ],
      "name": "transferDID",
      "outputs": [],
      "stateMutability": "nonpayable",
      "type": "function"
    },
    {
      "inputs": [
        {
          "internalType": "string",
          "name": "did",
          "type": "string"
        },
        {
          "internalType": "bytes",
          "name": "newPublicKey",
          "type": "bytes"
        },
        {
          "internalType": "string",
          "name": "documentHash",
          "type": "string"
        }
      ],
      "name": "updateDID",
      "outputs": [],
      "stateMutability": "nonpayable",
      "type": "function"
    },
    {
      "inputs": [
        {
          "internalType": "string",
          "name": "did",
          "type": "string"
        },
        {
          "internalType": "bytes32",
          "name": "messageHash",
          "type": "bytes32"
        },
        {
          "internalType": "bytes",
          "name": "signature",
          "type": "bytes"
        }
      ],
      "name": "verifyDIDSignature",
      "outputs": [
        {
          "internalType": "bool",
          "name": "",
          "type": "bool"
        }
      ],
      "stateMutability": "view",
      "type": "function"
    }
  ],
  "bytecode": "0x608060405234801561001057600080fd5b50611913806100206000396000f3fe608060405234801561001057600080fd5b50600436106100a95760003560e01c80636b8f49ea116100715780636b8f49ea146101355780639d7f0bbf14610148578063ab25837414610168578063dc791ca81461017b578063f44ab5161461019b578063fe00a912146101c057600080fd5b80630532caa4146100ae57806320dd57a9146100d757806332c258f5146100fa5780633b253b231461010d5780636b6abcca14610122575b600080fd5b6100c16100bc366004611156565b6101f7565b6040516100ce91906111c8565b60405180910390f35b6100ea6100e53660046112cd565b6102e6565b60405190151581526020016100ce565b6100ea61010836600461130a565b610313565b61012061011b3660046112cd565b6103e6565b005b610120610130366004611377565b610528565b610120610143366004611377565b6107a7565b61015b6101563660046112cd565b61095a565b6040516100ce91906113e8565b61012061017636600461145c565b610b9f565b61018e6101893660046114aa565b610ecb565b6040516100ce91906114d4565b6101ae6101a93660046112cd565b610f84565b6040516100ce969594939291906114e7565b6101e96101ce366004611156565b6001600160a01b031660009081526001602052604090205490565b6040519081526020016100ce565b6001600160a01b0381166000908152600160209081526040808320805482518185028101850190935280835260609492939192909184015b828210156102db57838290600052602060002001805461024e9061153e565b80601f016020809104026020016040519081016040528092919081815260200182805461027a9061153e565b80156102c75780601f1061029c576101008083540402835291602001916102c7565b820191906000526020600020905b8154815290600101906020018083116102aa57829003601f168201915b50505050508152602001906001019061022f565b505050509050919050565b600080826040516102f79190611578565b9081526040519081900360200190206003015460ff1692915050565b600080846040516103249190611578565b9081526040519081900360200190206003015460ff1661038b5760405162461bcd60e51b815260206004820152601c60248201527f444944206e6f7420666f756e64206f722064656163746976617465640000000060448201526064015b60405180910390fd5b81516040146103dc5760405162461bcd60e51b815260206004820152601860248201527f496e76616c6964207369676e6174757265206c656e67746800000000000000006044820152606401610382565b5060019392505050565b80336001600160a01b03166000826040516104019190611578565b908152604051908190036020019020600301546001600160a01b0361010090910416146104405760405162461bcd60e51b815260040161038290611594565b6000816040516104509190611578565b9081526040519081900360200190206003015460ff166104825760405162461bcd60e51b8152600401610382906115bb565b600080836040516104939190611578565b908152604051908190036020018120600301805492151560ff199093169290921790915542906000906104c7908590611578565b9081526040519081900360200181206002019190915533906104ea908490611578565b604051908190038120428252907f350825843b22939d489c861b0713f74681d5f60d3f92b89b839e2b2928baed3e9060200160405180910390a35050565b8260008151116105685760405162461bcd60e51b815260206004820152600b60248201526a125b9d985b1a590811125160aa1b6044820152606401610382565b610100815111156105aa5760405162461bcd60e51b815260206004820152600c60248201526b44494420746f6f206c6f6e6760a01b6044820152606401610382565b6000846040516105ba9190611578565b9081526040519081900360200190206003015460ff16156106125760405162461bcd60e51b815260206004820152601260248201527144494420616c72656164792065786973747360701b6044820152606401610382565b825160201461065f5760405162461bcd60e51b8152602060048201526019602482015278092dcecc2d8d2c840e0eac4d8d2c640d6caf240d8cadccee8d603b1b6044820152606401610382565b6040805160c0810182528481524260208201819052818301526001606082015233608082015260a08101849052905160009061069c908790611578565b908152604051908190036020019020815181906106b99082611636565b506020820151600182015560408201516002820155606082015160038201805460808501516001600160a01b031661010002610100600160a81b0319931515939093166001600160a81b03199091161791909117905560a082015160048201906107239082611636565b5050336000908152600160208181526040832080549283018155835290912001905061074f8582611636565b506040513390610760908690611578565b60405180910390207f0b35602bc55b852a103866e438d64e569c95e4493fb9c23abf1e5f65ef1211a185426040516107999291906116f6565b60405180910390a350505050565b82336001600160a01b03166000826040516107c29190611578565b908152604051908190036020019020600301546001600160a01b0361010090910416146108015760405162461bcd60e51b815260040161038290611594565b6000816040516108119190611578565b9081526040519081900360200190206003015460ff166108435760405162461bcd60e51b8152600401610382906115bb565b82516020146108905760405162461bcd60e51b8152602060048201526019602482015278092dcecc2d8d2c840e0eac4d8d2c640d6caf240d8cadccee8d603b1b6044820152606401610382565b826000856040516108a19190611578565b908152604051908190036020019020906108bb9082611636565b50426000856040516108cd9190611578565b908152602001604051809103902060020181905550816000856040516108f39190611578565b908152602001604051809103902060040190816109109190611636565b506040513390610921908690611578565b60405180910390207f306ca7c5dce32605a51a8d656f57c73722874161311f76edcca8305b02204dcb85426040516107999291906116f6565b61099e6040518060c0016040528060608152602001600081526020016000815260200160001515815260200160006001600160a01b03168152602001606081525090565b6000826040516109ae9190611578565b9081526040519081900360200190206003015460ff16610a105760405162461bcd60e51b815260206004820152601c60248201527f444944206e6f7420666f756e64206f72206465616374697661746564000000006044820152606401610382565b600082604051610a209190611578565b90815260200160405180910390206040518060c0016040529081600082018054610a499061153e565b80601f0160208091040260200160405190810160405280929190818152602001828054610a759061153e565b8015610ac25780601f10610a9757610100808354040283529160200191610ac2565b820191906000526020600020905b815481529060010190602001808311610aa557829003601f168201915b50505091835250506001820154602082015260028201546040820152600382015460ff81161515606083015261010090046001600160a01b0316608082015260048201805460a090920191610b169061153e565b80601f0160208091040260200160405190810160405280929190818152602001828054610b429061153e565b8015610b8f5780601f10610b6457610100808354040283529160200191610b8f565b820191906000526020600020905b815481529060010190602001808311610b7257829003601f168201915b5050505050815250509050919050565b81336001600160a01b0316600082604051610bba9190611578565b908152604051908190036020019020600301546001600160a01b036101009091041614610bf95760405162461bcd60e51b815260040161038290611594565b600081604051610c099190611578565b9081526040519081900360200190206003015460ff16610c3b5760405162461bcd60e51b8152600401610382906115bb565b6001600160a01b038216610c855760405162461bcd60e51b815260206004820152601160248201527024b73b30b634b2103732bb9037bbb732b960791b6044820152606401610382565b336001600160a01b03831603610ccd5760405162461bcd60e51b815260206004820152600d60248201526c20b63932b0b23c9037bbb732b960991b6044820152606401610382565b600033905082600085604051610ce39190611578565b908152602001604051809103902060030160016101000a8154816001600160a01b0302191690836001600160a01b0316021790555042600085604051610d299190611578565b9081526040805160209281900383019020600201929092556001600160a01b038516600090815260018083529281208054938401815581522001610d6d8582611636565b506001600160a01b0381166000908152600160205260408120905b8154811015610e67578580519060200120828281548110610dab57610dab611718565b90600052602060002001604051610dc2919061172e565b604051809103902003610e555781548290610ddf906001906117ba565b81548110610def57610def611718565b90600052602060002001828281548110610e0b57610e0b611718565b906000526020600020019081610e2191906117d3565b5081805480610e3257610e326118ae565b600190038181906000526020600020016000610e4e91906110e4565b9055610e67565b80610e5f816118c4565b915050610d88565b50836001600160a01b0316826001600160a01b031686604051610e8a9190611578565b604051908190038120428252907ffab9dac2aaad626a3928170543736ee7149b2cfbb04c85a2c514c98b6fff33119060200160405180910390a45050505050565b60016020528160005260406000208181548110610ee757600080fd5b90600052602060002001600091509150508054610f039061153e565b80601f0160208091040260200160405190810160405280929190818152602001828054610f2f9061153e565b8015610f7c5780601f10610f5157610100808354040283529160200191610f7c565b820191906000526020600020905b815481529060010190602001808311610f5f57829003601f168201915b505050505081565b8051602081830181018051600082529282019190930120915280548190610faa9061153e565b80601f0160208091040260200160405190810160405280929190818152602001828054610fd69061153e565b80156110235780601f10610ff857610100808354040283529160200191611023565b820191906000526020600020905b81548152906001019060200180831161100657829003601f168201915b505050506001830154600284015460038501546004860180549596939592945060ff8216936101009092046001600160a01b0316926110619061153e565b80601f016020809104026020016040519081016040528092919081815260200182805461108d9061153e565b80156110da5780601f106110af576101008083540402835291602001916110da565b820191906000526020600020905b8154815290600101906020018083116110bd57829003601f168201915b5050505050905086565b5080546110f09061153e565b6000825580601f10611100575050565b601f01602090049060005260206000209081019061111e9190611121565b50565b5b808211156111365760008155600101611122565b5090565b80356001600160a01b038116811461115157600080fd5b919050565b60006020828403121561116857600080fd5b6111718261113a565b9392505050565b60005b8381101561119357818101518382015260200161117b565b50506000910152565b600081518084526111b4816020860160208601611178565b601f01601f19169290920160200192915050565b6000602080830181845280855180835260408601915060408160051b870101925083870160005b8281101561121d57603f1988860301845261120b85835161119c565b945092850192908501906001016111ef565b5092979650505050505050565b634e487b7160e01b600052604160045260246000fd5b600082601f83011261125157600080fd5b813567ffffffffffffffff8082111561126c5761126c61122a565b604051601f8301601f19908116603f011681019082821181831017156112945761129461122a565b816040528381528660208588010111156112ad57600080fd5b836020870160208301376000602085830101528094505050505092915050565b6000602082840312156112df57600080fd5b813567ffffffffffffffff8111156112f657600080fd5b61130284828501611240565b949350505050565b60008060006060848603121561131f57600080fd5b833567ffffffffffffffff8082111561133757600080fd5b61134387838801611240565b945060208601359350604086013591508082111561136057600080fd5b5061136d86828701611240565b9150509250925092565b60008060006060848603121561138c57600080fd5b833567ffffffffffffffff808211156113a457600080fd5b6113b087838801611240565b945060208601359150808211156113c657600080fd5b6113d287838801611240565b9350604086013591508082111561136057600080fd5b602081526000825160c0602084015261140460e084018261119c565b9050602084015160408401526040840151606084015260608401511515608084015260018060a01b0360808501511660a084015260a0840151601f198483030160c0850152611453828261119c565b95945050505050565b6000806040838503121561146f57600080fd5b823567ffffffffffffffff81111561148657600080fd5b61149285828601611240565b9250506114a16020840161113a565b90509250929050565b600080604083850312156114bd57600080fd5b6114c68361113a565b946020939093013593505050565b602081526000611171602083018461119c565b60c0815260006114fa60c083018961119c565b602083018890526040830187905285151560608401526001600160a01b038516608084015282810360a0840152611531818561119c565b9998505050505050505050565b600181811c9082168061155257607f821691505b60208210810361157257634e487b7160e01b600052602260045260246000fd5b50919050565b6000825161158a818460208701611178565b9190910192915050565b6020808252600d908201526c2737ba102224a21037bbb732b960991b604082015260600190565b602080825260129082015271111251081a5cc819195858dd1a5d985d195960721b604082015260600190565b601f82111561163157600081815260208120601f850160051c8101602086101561160e5750805b601f850160051c820191505b8181101561162d5782815560010161161a565b5050505b505050565b815167ffffffffffffffff8111156116505761165061122a565b6116648161165e845461153e565b846115e7565b602080601f83116001811461169957600084156116815750858301515b600019600386901b1c1916600185901b17855561162d565b600085815260208120601f198616915b828110156116c8578886015182559484019460019091019084016116a9565b50858210156116e65787850151600019600388901b60f8161c191681555b5050505050600190811b01905550565b604081526000611709604083018561119c565b90508260208301529392505050565b634e487b7160e01b600052603260045260246000fd5b600080835461173c8161153e565b60018281168015611754576001811461176957611798565b60ff1984168752821515830287019450611798565b8760005260208060002060005b8581101561178f5781548a820152908401908201611776565b50505082870194505b50929695505050505050565b634e487b7160e01b600052601160045260246000fd5b818103818111156117cd576117cd6117a4565b92915050565b8181036117de575050565b6117e8825461153e565b67ffffffffffffffff8111156118005761180061122a565b61180e8161165e845461153e565b6000601f821160018114611842576000831561182a5750848201545b600019600385901b1c1916600184901b1784556118a7565b600085815260209020601f19841690600086815260209020845b8381101561187c578286015482556001958601959091019060200161185c565b508583101561189a5781850154600019600388901b60f8161c191681555b50505060018360011b0184555b5050505050565b634e487b7160e01b600052603160045260246000fd5b6000600182016118d6576118d66117a4565b506001019056fea26469706673582212208a42aad25ed533eaac647a802e98a16dd77f52d7c8f8a674cac4e7cdccb0589e64736f6c63430008140033",
  "linkReferences": {},
  "deployedLinkReferences": {}
}